:100000000C9444010C9475010C9475010C947501C9
:100010000C9475010C9475010C9475010C94750188
:100020000C9475010C9475010C9475010C94750178
:100030000C9475010C9475010C9475010C94750168
:100040000C9475010C9475010C9475010C94750158
:100050000C9475010C9475010C9475010C94270493
:100060000C9475010C94D7050C942F070C94750112
:100070000C9475010C9475010C9475010C94750128
:100080000C9475010C9475010C9475010C94750118
:100090000C9417060C946E070C9475010C94750162
:1000A0000C9475010C9475010C9475010C947501F8
:1000B0000C9475010C9475010C9475010C947501E8
:1000C0000C9475010C9475010C9475010C945706F1
:1000D0000C94AD070C9475010C9497060C94EC07E6
:1000E0000C947501F404F704EA04EE042E05FB04F5
:1000F000FF04050509050D05130517051B052E054C
:100100002105250529050C94E6080C9413050C948B
:100110005F090C9425050C9409050C94FF040C94BC
:10012000EE040C940D050C942E050C94EA040C942A
:100130001B050C940F090C94C6080C941F090C9411
:1001400021050C9429050C94D6060C9405050C94F5
:10015000F4040C94F7040C9417050C94FB040C9411
:10016000950A0C94B2080000090A02080B0C0D074E
:100170000603040100000000000000000000000071
:10018000000000000000000000000000000000006F
:10019000000011100F00000000000000000000002F
:1001A000000000000000000000000000010210201C
:1001B000200808102040102040800201020108049D
:1001C0000201010204081020408080402010080431
:1001D000020180040201804020100804020108048A
:1001E00002010102040810204080010204081020CE
:1001F00040800505050507050808080802020202F7
:100200000A0A0808040404040101010101010101B2
:100210000303030303030303040707070C0C0C0C7D
:100220000C0C0C0C02020202060606060606060666
:100230000B0B0B0B0B0B0B0B0000200023002600FD
:1002400029002C002F0032000001000003010601EC
:10025000090100002200250028002B002E0031009B
:10026000340002010000050108010B01000021001B
:10027000240027002A002D00300033000101000077
:10028000040107010A015F0911241FBECFEFD1E26B
:10029000DEBFCDBF00E00CBF12E0A0E0B2E0ECEBAF
:1002A000F6E100E00BBF02C007900D92A835B10740
:1002B000D9F71AE0A8E5B2E001C01D92AF35B10749
:1002C000E1F712E0C8E8D2E000E006C02297010999
:1002D000FE010BBF0E94490BC638D10780E008071A
:1002E000A9F70E94C5050C945C0B0C9400005F926A
:1002F0006F927F928F929F92AF92BF92CF92DF9236
:10030000EF92FF920F931F93FC01DA01A801A2174D
:10031000B3074CF42A1B3B0B79010027F7FC00952F
:10032000102F55240AC0CD01821B930B7C0100279E
:10033000F7FC0095102F552453946E177F071CF47B
:1003400020E030E03CC0CB018E1B9F0B3C01882499
:1003500077FC8094982CCA014E175F070CF4CF01EC
:10036000681779070CF4CB018E1B9F0B9C01442767
:1003700037FD4095542F5D01CC24B7FCC094DC2C94
:10038000552069F4C801B7010E94BF0AA401930176
:100390000E94050B2A0D3B1D4C1D5D1D10C0C801A0
:1003A000B7010E94BF0AA40193010E94050BD60168
:1003B000C501821B930BA40BB50B9C01AD01C901B8
:1003C0001F910F91FF90EF90DF90CF90BF90AF9073
:1003D0009F908F907F906F905F9008950F931F93E1
:1003E0008C0184E090E063E170E04FE750E023E2AD
:1003F00030E00E9477011F910F91089586E160E03F
:100400000E942F0588E160E00E942F058AE160E0EC
:100410000E942F058CE160E00E942F058EE160E0D4
:100420000E942F0580E260E00E942F0582E260E0DA
:100430000E942F0584E260E00E942F0586E260E0C2
:100440000E942F0588E260E00E942F058AE260E0AA
:100450000E942F058CE260E00E942F058EE260E092
:100460000E942F0587E161E00E942F0589E161E08C
:100470000E942F058BE161E00E942F058DE161E074
:100480000E942F058FE161E00E942F0581E261E06B
:100490000E942F0583E261E00E942F0585E261E062
:1004A0000E942F0587E261E00E942F0589E261E04A
:1004B0000E942F058BE261E00E942F058DE261E032
:1004C0000E942F058CE060E00E942F0587ED99E0E7
:1004D00042E15AE760E070E00E942B080895EF9235
:1004E000FF920F931F93282FF62EE42E07ED19E0AD
:1004F000C801622F0E941F09C8016F2D0E941F09A9
:10050000C8016E2D0E941F091F910F91FF90EF905F
:10051000089580579F4F0E946F0208952F923F9237
:100520004F925F926F927F928F929F92AF92BF9203
:10053000CF92DF92EF92FF920F931F93DF93CF93AF
:10054000CDB7DEB72F970FB6F894DEBF0FBECDBF85
:1005500025E132E03C832B838BE392E09A8389830D
:10056000E3E1F0E0FE83ED834D805E802DEE3FEF12
:10057000420E531EEB81FC81F081FD878F2F61E0DD
:100580000E946B0521E232E03C872B87C201880F75
:10059000991F7CE5A72E72E0B72EA80EB91E6CEF4E
:1005A000E62E62E0F62EE80EF91EC201880F991FB2
:1005B000880F991FFC01E45DFA4FFA87E9874CED3B
:1005C000242E44E0342E240C351C9C012459394F30
:1005D00038872F830B851C853F013F862E86490176
:1005E000CD80DE80F80180810E949B059C01F50191
:1005F00091838083F701808191812817390779F1F0
:10060000232B41F00E947104F30160837183828384
:1006100093831FC00E947104F401208131814281C3
:100620005381621B730B840B950B6B307105810535
:10063000910560F0EE85FF858081813039F480E09E
:1006400090E0B60140E050E00E948902EE85FF850F
:100650001082F50180819181F701918380830E5F83
:100660001F4F2CE030E0A20EB31EE20EF31E88E115
:1006700090E0680E791EEE85FF853696FF87EE873F
:10068000880E991E26E030E0C20ED31E32E00B33F6
:10069000130709F0A7CF8D8560E00E946B05E98103
:1006A000FA81D0808D2D61E00E946B05C201880F18
:1006B000991F8C0104561C4F2CE3A22E24E0B22E6D
:1006C000A80EB91EED80FE80EB85FC8580810E941E
:1006D0009B059C01F80191838083F50180819181C4
:1006E00028173907C1F1232B81F10E9471049B0166
:1006F000AC01EF81F8852083318342835383E98500
:10070000FA8580819181281B390B3093AD072093A6
:10071000AC072431310534F023E130E03093AD07EC
:100720002093AC07F1018081882361F48091AC07AC
:100730009091AD070E94EE01AC0180E090E0B7011E
:100740000E94890221E0F1012083F80180819181DA
:10075000F501918380832B853C852E5F3F4F3C873D
:100760002B87045F1F4F8CE090E0A80EB91EE6E0D7
:10077000F0E02E0E3F1EEE0EFF1E2F813885285E04
:100780003F4F38872F8389859A8548969A8789872E
:10079000EB85FC85EB53F24009F096CF8D2D60E0A0
:1007A0000E946B058B819C8102969C838B83ED81DB
:1007B000FE813196FE83ED8329813A812E5F3F4F82
:1007C0003A8329838152924009F0CECE8CE00E9478
:1007D0009B059C01909359028093580280915A0284
:1007E00090915B0228173907C9F0232B39F080EB71
:1007F00090E060E470E04FE750E006C080EB90E0EE
:1008000060E470E040E050E00E946F028091580286
:100810009091590290935B0280935A022F960FB6E3
:10082000F894DEBF0FBECDBFCF91DF911F910F9126
:10083000FF90EF90DF90CF90BF90AF909F908F9000
:100840007F906F905F904F903F902F9008951F92F0
:100850000F920FB60F9211242F933F938F939F9374
:10086000AF93BF938091AF079091B007A091B1076C
:10087000B091B2073091AE0723E0230F2D3720F45B
:100880000196A11DB11D05C026E8230F0296A11DEA
:10089000B11D2093AE078093AF079093B007A0934C
:1008A000B107B093B2078091B3079091B407A091BC
:1008B000B507B091B6070196A11DB11D8093B3078E
:1008C0009093B407A093B507B093B607BF91AF91CB
:1008D0009F918F913F912F910F900FBE0F901F907E
:1008E00018952FB7F8946091AF077091B007809179
:1008F000B1079091B2072FBF0895789484B58260B4
:1009000084BD84B5816084BD85B5826085BD85B5B3
:10091000816085BDEEE6F0E0808181608083E1E862
:10092000F0E010828081826080838081816080839A
:10093000E0E8F0E0808181608083E1EBF0E080819D
:1009400084608083E0EBF0E0808181608083E1E976
:10095000F0E0808182608083808181608083E0E933
:10096000F0E0808181608083E1EAF0E08081826054
:100970008083808181608083E0EAF0E08081816013
:100980008083E1E2F1E08081826080838081816008
:100990008083E0E2F1E0808181608083EAE7F0E03B
:1009A0008081846080838081826080838081816097
:1009B00080838081806880831092C100089590E0D8
:1009C000FC013197E131F10508F048C0EE58FF4FC6
:1009D0000C94240B809180008F7703C0809180005D
:1009E0008F7D80938000089584B58F7702C084B591
:1009F0008F7D84BD08958091B0008F7703C0809172
:100A0000B0008F7D8093B0000895809190008F7723
:100A100007C0809190008F7D03C080919000877FF8
:100A20008093900008958091A0008F7707C08091F7
:100A3000A0008F7D03C08091A000877F8093A000DD
:100A40000895809120018F7707C0809120018F7DCC
:100A500003C080912001877F809320010895CF9368
:100A6000DF9390E0FC01E455FE4F2491FC01EE5031
:100A7000FE4F8491882361F190E0880F991FFC015B
:100A8000E459FD4FC591D491FC01EE5AFD4FA5915B
:100A9000B491611109C09FB7F89488812095822391
:100AA0008883EC912E230BC0623061F49FB7F894D9
:100AB0003881822F809583238883EC912E2B2C9371
:100AC0009FBF06C08FB7F894E8812E2B28838FBF75
:100AD000DF91CF9108951F93CF93DF93282F30E0BC
:100AE000F901EA59FE4F8491F901E455FE4FD49182
:100AF000F901EE50FE4FC491CC23C9F0162F81119D
:100B00000E94DF04EC2FF0E0EE0FFF1FEE5AFD4FC6
:100B1000A591B4918FB7F894111105C09C91ED2F58
:100B2000E095E92302C0EC91ED2BEC938FBFDF91B0
:100B3000CF911F910895CF93DF93282F30E0F901D3
:100B4000EA59FE4F8491F901E455FE4FD491F90121
:100B5000EE50FE4FC491CC2391F081110E94DF042E
:100B6000EC2FF0E0EE0FFF1FE85CFD4FA591B49174
:100B7000EC91ED2381E090E021F480E002C080E080
:100B800090E0DF91CF9108950895CF93DF930E9475
:100B90007D040E94C4050E94FE01C6EDD6E00E94BD
:100BA0008E022097E1F30E94D606F9CF08951F9296
:100BB0000F920FB60F920BB60F9211242F933F9303
:100BC0004F938F939F93EF93FF938091C00082FD8B
:100BD0001DC04091C6002091F7073091F8072F5FA4
:100BE0003F4F2F7330708091F9079091FA072817C3
:100BF000390771F0E091F707F091F807E954F84FE1
:100C000040833093F8072093F70702C08091C60015
:100C1000FF91EF919F918F914F913F912F910F9065
:100C20000BBE0F900FBE0F901F90189508951F9246
:100C30000F920FB60F920BB60F9211242F933F9382
:100C40004F938F939F93EF93FF938091C80082FD02
:100C50001DC04091CE0020917F08309180082F5F09
:100C60003F4F2F7330708091810890918208281730
:100C7000390771F0E0917F08F0918008E15CF74F4F
:100C800040833093800820937F0802C08091CE007B
:100C9000FF91EF919F918F914F913F912F910F90E5
:100CA0000BBE0F900FBE0F901F90189508951F92C6
:100CB0000F920FB60F920BB60F9211242F933F9302
:100CC0004F938F939F93EF93FF938091D00082FD7A
:100CD0001DC04091D60020910709309108092F5F6F
:100CE0003F4F2F7330708091090990910A0928179E
:100CF000390771F0E0910709F0910809E953F74FBE
:100D00004083309308092093070902C08091D600E0
:100D1000FF91EF919F918F914F913F912F910F9064
:100D20000BBE0F900FBE0F901F90189508951F9245
:100D30000F920FB60F920BB60F9211242F933F9381
:100D40004F938F939F93EF93FF938091300182FD98
:100D50001DC04091360120918F09309190092F5F7D
:100D60003F4F2F733070809191099091920928170D
:100D7000390771F0E0918F09F0919009E15BF64F2E
:100D800040833093900920938F0902C080913601EF
:100D9000FF91EF919F918F914F913F912F910F90E4
:100DA0000BBE0F900FBE0F901F901895E091E309B6
:100DB000F091E409E05CFF4F8191919120813181B4
:100DC000805C9F4F821B930B60E470E00E94CF0A0F
:100DD000892B11F00E94D605E091050AF091060AD0
:100DE000E05CFF4F8191919120813181805C9F4F28
:100DF000821B930B60E470E00E94CF0A892B11F0F4
:100E00000E941606E091270AF091280AE05CFF4F45
:100E10008191919120813181805C9F4F821B930B46
:100E200060E470E00E94CF0A892B11F00E94560600
:100E3000E091490AF0914A0AE05CFF4F819191915B
:100E400020813181805C9F4F821B930B60E470E0B6
:100E50000E94CF0A892B11F00E94960608951F92D6
:100E60000F920FB60F920BB60F9211242F933F9350
:100E70008F939F93EF93FF9320913B0830913C0811
:100E800080913D0890913E082817390731F48091F0
:100E9000C1008F7D8093C10014C0E0913D08F091A6
:100EA0003E08E550F84F208180913D0890913E0822
:100EB00001968F73907090933E0880933D08209325
:100EC000C600FF91EF919F918F913F912F910F90CD
:100ED0000BBE0F900FBE0F901F9018951F920F9290
:100EE0000FB60F920BB60F9211242F933F938F934F
:100EF0009F93EF93FF932091C3083091C408809192
:100F0000C5089091C6082817390731F48091C900A7
:100F10008F7D8093C90014C0E091C508F091C60888
:100F2000ED57F74F20818091C5089091C608019632
:100F30008F7390709093C6088093C5082093CE005D
:100F4000FF91EF919F918F913F912F910F900BBE49
:100F50000F900FBE0F901F9018951F920F920FB613
:100F60000F920BB60F9211242F933F938F939F9361
:100F7000EF93FF9320914B0930914C0980914D09DB
:100F800090914E092817390731F48091D1008F7D57
:100F90008093D10014C0E0914D09F0914E09E55FB6
:100FA000F64F208180914D0990914E0901968F73E3
:100FB000907090934E0980934D092093D600FF9135
:100FC000EF919F918F913F912F910F900BBE0F90BA
:100FD0000FBE0F901F9018951F920F920FB60F9291
:100FE0000BB60F9211242F933F938F939F93EF9300
:100FF000FF932091D3093091D4098091D509909124
:10100000D6092817390731F4809131018F7D8093FB
:10101000310114C0E091D509F091D609ED56F64F93
:1010200020818091D5099091D60901968F73907097
:101030009093D6098093D50920933601FF91EF91C3
:101040009F918F913F912F910F900BBE0F900FBEEC
:101050000F901F901895AF92BF92DF92EF92FF9280
:101060000F931F93CF93DF93EC017A018B01DD2463
:10107000403081EE580780E0680780E0780711F083
:10108000DD24D39491E0A92EB12CEC89FD89DD20DB
:1010900069F0C50108A002C0880F991F0A94E2F701
:1010A000808360E079E08DE390E005C0108260E825
:1010B00074E88EE190E0A80197010E94E30A2150B4
:1010C000304040405040569547953795279580E1F0
:1010D0002030380720F0DD2011F0DD24D6CFE8895C
:1010E000F9893083EA89FB89208319A2EE89FF8977
:1010F000408121E030E0C9010C8C02C0880F991FAB
:101100000A94E2F7482B4083EE89FF894081C901A8
:101110000D8C02C0880F991F0A94E2F7482B408378
:10112000EE89FF894081C9010E8C02C0880F991F8A
:101130000A94E2F7482B4083EE89FF8980810F8C67
:1011400002C0220F331F0A94E2F720952823208340
:10115000DF91CF911F910F91FF90EF90DF90BF90A3
:10116000AF900895DC011C96ED91FC911D97E05C19
:10117000FF4F8191919120813181805C9F4F821B33
:10118000930B60E470E00E94CF0A0895DC011C9686
:10119000ED91FC911D97E05CFF4F20813181E0547F
:1011A000F040DF01AE5BBF4F8D919C9111972817E6
:1011B000390719F42FEF3FEF07C08D919C91E80F8D
:1011C000F91F8081282F30E0C9010895DC011C96A9
:1011D000ED91FC911D97E05CFF4F20813181E0543F
:1011E000F040DF01AE5BBF4F8D919C9111972817A6
:1011F000390719F42FEF3FEF10C08D919C91119793
:10120000E80FF91F20818D919C91119701968F73A2
:10121000907011969C938E9330E0C9010895DC0183
:1012200091968C919197882339F05496ED91FC9189
:101230005597808186FFF9CF91961C920895CF93A0
:10124000DF93EC01EE85FF85E05CFF4F208131816B
:10125000E054F0402F5F3F4F2F733070DF01AE5BE3
:10126000BF4F8D919C91119728173907D1F3E05CFE
:10127000FF4F80819181E054F040E80FF91F6083B7
:10128000EE85FF85E05CFF4F31832083EE89FF8987
:10129000208181E090E00F8C02C0880F991F0A9492
:1012A000E2F7282B208381E089A3EC89FD898081E6
:1012B0008064808381E090E0DF91CF9108951F9357
:1012C0001092DA091092D90928EE33E040E050E09C
:1012D0002093DB093093DC094093DD095093DE094C
:1012E0006BE472E07093D8096093D70987EB97E0BD
:1012F0009093E4098093E3098BEF97E09093E609DC
:101300008093E50985EC90E09093E8098093E709E4
:1013100084EC90E09093EA098093E90980EC90E0F6
:101320009093EC098093EB0981EC90E09093EE09A7
:101330008093ED0982EC90E09093F0098093EF099F
:1013400086EC90E09093F2098093F10914E01093F9
:10135000F309B3E0B093F409A7E0A093F509F5E031
:10136000F093F609E1E0E093F7091092FC0910927E
:10137000FB092093FD093093FE094093FF09509328
:10138000000A7093FA096093F9098FE398E090934B
:10139000060A8093050A83E898E09093080A8093F0
:1013A000070A8DEC90E090930A0A8093090A8CEC6E
:1013B00090E090930C0A80930B0A88EC90E0909355
:1013C0000E0A80930D0A89EC90E09093100A8093A6
:1013D0000F0A8AEC90E09093120A8093110A8EEC27
:1013E00090E09093140A8093130A1093150AB09317
:1013F000160AA093170AF093180AE093190A10929C
:101400001E0A10921D0A20931F0A3093200A40934F
:10141000210A5093220A70931C0A60931B0A87ECDE
:1014200098E09093280A8093270A8BE099E09093A4
:101430002A0A8093290A85ED90E090932C0A8093E4
:101440002B0A84ED90E090932E0A80932D0A80ED74
:1014500090E09093300A80932F0A81ED90E0909372
:10146000320A8093310A82ED90E09093340A80939F
:10147000330A86ED90E09093360A8093350A1093F4
:10148000370AB093380AA093390AF0933A0AE093E6
:101490003B0A1092400A10923F0A2093410A30936F
:1014A000420A4093430A5093440A70933E0A609361
:1014B0003D0A8FE499E090934A0A8093490A83E9B0
:1014C00099E090934C0A80934B0A85E391E09093C6
:1014D0004E0A80934D0A84E391E09093500A8093E2
:1014E0004F0A80E391E09093520A8093510A81E37E
:1014F00091E09093540A8093530A82E391E0909391
:10150000560A8093550A86E391E09093580A809397
:10151000570A1093590AB0935A0AA0935B0AF093A2
:101520005C0AE0935D0A1F910895CF92DF92EF92DB
:10153000FF920F931F93CF93DF937C016B018A017E
:10154000C0E0D0E00FC0D6016D916D01D701ED91E3
:10155000FC910190F081E02DC7011995C80FD91FAA
:10156000015010400115110571F7CE01DF91CF91A7
:101570001F910F91FF90EF90DF90CF900895DB01C6
:101580008F939F930E942A0BBF91AF91A29F800DD2
:10159000911DA39F900DB29F900D1124089597FB6C
:1015A000072E16F4009407D077FD09D00E94350B62
:1015B00007FC05D03EF4909581959F4F0895709556
:1015C00061957F4F0895A1E21A2EAA1BBB1BFD0156
:1015D0000DC0AA1FBB1FEE1FFF1FA217B307E40712
:1015E000F50720F0A21BB30BE40BF50B661F771F6A
:1015F000881F991F1A9469F760957095809590954A
:101600009B01AC01BD01CF010895052E97FB1EF48F
:1016100000940E941C0B57FD07D00E94E30A07FCB0
:1016200003D04EF40C941C0B5095409530952195A9
:101630003F4F4F4F5F4F08959095809570956195FE
:101640007F4F8F4F9F4F0895EE0FFF1F0590F4912E
:10165000E02D19940E944D0BA59F900DB49F900D05
:10166000A49F800D911D11240895AA1BBB1B51E15D
:1016700007C0AA1FBB1FA617B70710F0A61BB70B02
:10168000881F991F5A95A9F780959095BC01CD01A7
:1016900008950790F691E02D1994A29FB001B39F91
:1016A000C001A39F700D811D1124911DB29F700D6B
:0C16B000811D1124911D0895F894FFCFB6
:1016BC006B002D003A00006E616E00696E66006F63
:1016CC007666002E00170019001B001D001F00215C
:1016DC0000160018001A001C001E00200022002416
:1016EC0000260028002A002C002E002300250027AD
:1016FC000029002B002D00000000001F09950AB2E4
:08170C0008E608C6080F0900F9
:00000001FF
