:100000000C9444010C9475010C9475010C947501C9
:100010000C9475010C9475010C9475010C94750188
:100020000C9475010C9475010C9475010C94750178
:100030000C9475010C9475010C9475010C94750168
:100040000C9475010C9475010C9475010C94750158
:100050000C9475010C9475010C9475010C94A20319
:100060000C9475010C9452050C94AA060C9475011D
:100070000C9475010C9475010C9475010C94750128
:100080000C9475010C9475010C9475010C94750118
:100090000C9492050C94E9060C9475010C9475016E
:1000A0000C9475010C9475010C9475010C947501F8
:1000B0000C9475010C9475010C9475010C947501E8
:1000C0000C9475010C9475010C9475010C94D20577
:1000D0000C9428070C9475010C9412060C94670775
:1000E0000C9475016F04720465046904A904760414
:1000F0007A048004840488048E0492049604A9047B
:100100009C04A004A4040C948E040C9469040C9424
:100110008A080C94A4040C94A0040C947A040C9403
:1001200088040C942D080C9472040C9451060C94C1
:10013000100A0C9484040C94DA080C9441080C9472
:1001400061080C94A9040C9480040C9496040C94FB
:1001500092040C949A080C9476040C949C040C94CD
:100160006F040C9465040000090A02080B0C0D07CB
:100170000603040100000000000000000000000071
:10018000000000000000000000000000000000006F
:10019000000011100F00000000000000000000002F
:1001A000000000000000000000000000010210201C
:1001B000200808102040102040800201020108049D
:1001C0000201010204081020408080402010080431
:1001D000020180040201804020100804020108048A
:1001E00002010102040810204080010204081020CE
:1001F00040800505050507050808080802020202F7
:100200000A0A0808040404040101010101010101B2
:100210000303030303030303040707070C0C0C0C7D
:100220000C0C0C0C02020202060606060606060666
:100230000B0B0B0B0B0B0B0B0000200023002600FD
:1002400029002C002F0032000001000003010601EC
:10025000090100002200250028002B002E0031009B
:10026000340002010000050108010B01000021001B
:10027000240027002A002D00300033000101000077
:10028000040107010A01DA0811241FBECFEFD1E2F1
:10029000DEBFCDBF00E00CBF12E0A0E0B2E0E2EBB9
:1002A000F5E100E00BBF02C007900D92A835B10741
:1002B000D9F71AE0A8E5B2E001C01D92AD30B10750
:1002C000E1F712E0C8E8D2E000E006C02297010999
:1002D000FE010BBF0E94C40AC638D10780E00807A0
:1002E000A9F70E9440050C94D70A0C9400005F9275
:1002F0006F927F928F929F92AF92BF92CF92DF9236
:10030000EF92FF920F931F93FC01DA01A801A2174D
:10031000B3074CF42A1B3B0B79010027F7FC00952F
:10032000102F55240AC0CD01821B930B7C0100279E
:10033000F7FC0095102F552453946E177F071CF47B
:1003400020E030E03CC0CB018E1B9F0B3C01882499
:1003500077FC8094982CCA014E175F070CF4CF01EC
:10036000681779070CF4CB018E1B9F0B9C01442767
:1003700037FD4095542F5D01CC24B7FCC094DC2C94
:10038000552069F4C801B7010E943A0AA4019301FB
:100390000E94800A2A0D3B1D4C1D5D1D10C0C80126
:1003A000B7010E943A0AA40193010E94800AD60173
:1003B000C501821B930BA40BB50B9C01AD01C901B8
:1003C0001F910F91FF90EF90DF90CF90BF90AF9073
:1003D0009F908F907F906F905F90089586E160E08E
:1003E0000E94AA0488E160E00E94AA048AE160E019
:1003F0000E94AA048CE160E00E94AA048EE160E001
:100400000E94AA0480E260E00E94AA0482E260E006
:100410000E94AA0484E260E00E94AA0486E260E0EE
:100420000E94AA0488E260E00E94AA048AE260E0D6
:100430000E94AA048CE260E00E94AA048EE260E0BE
:100440000E94AA0487E161E00E94AA0489E161E0B8
:100450000E94AA048BE161E00E94AA048DE161E0A0
:100460000E94AA048FE161E00E94AA0481E261E097
:100470000E94AA0483E261E00E94AA0485E261E08E
:100480000E94AA0487E261E00E94AA0489E261E076
:100490000E94AA048BE261E00E94AA048DE261E05E
:1004A0000E94AA0485E899E042E15AE760E070E022
:1004B0000E94A6070895EF92FF920F931F93282F93
:1004C000F62EE42E05E819E0C801622F0E949A0872
:1004D000C8016F2D0E949A08C8016E2D0E949A08CB
:1004E0001F910F91FF90EF90089580579F4F0E94AA
:1004F0005B0208952F923F924F925F926F927F928C
:100500008F929F92AF92BF92CF92DF92EF92FF9223
:100510000F931F93DF93CF9300D00F920F92CDB71D
:10052000DEB785E192E09A838983BBE32B2EB2E0AC
:100530003B2EAA24BB24E981FA819080892D61E0B9
:100540000E94E604A1E24A2EA2E05A2EC501880FBD
:10055000991FE8E5CE2EE2E0DE2EC80ED91E8C01F2
:1005600008501D4F3501660C771C660C771C88ED12
:1005700094E0680E791E5D824C827301EC81FD81EE
:1005800080810E941605F60191838083F801208105
:1005900031818217930769F00E94EC03F7016083B1
:1005A000718382839383F60180819181F801918325
:1005B00080838C819D8102969D838C83ECE0F0E0AA
:1005C000CE0EDF1E045F1F4F88E190E0E80EF91E9B
:1005D000EC81FD81EB53F24089F6892D60E00E94A9
:1005E000E604F101F081FB838F2F61E00E94E604B5
:1005F000C501880F991F58E9852E53E0952E880E66
:10060000991E48E3C42E44E0D42EC80ED91E33E10F
:10061000E32EF12CEA0CFB1CC501880F991F880FF3
:10062000991F885E994F9D838C83F20180810E947F
:100630001605F40191838083F601208131818217B0
:100640009307B1F10E94EC039B01AC01EC81FD81A9
:100650002083318342835383F30180819181890117
:10066000081B190B1093590700935807F401808158
:100670009181F60191838083892B99F088E090E045
:100680006CE170E04FE750E026E330E00E94770134
:10069000AC0190935B0780935A0780E090E0B7012C
:1006A00005C080E090E0B70140E050E00E94750294
:1006B00082E090E0480E591EECE0F0E08E0E9F1EA6
:1006C000CE0EDF1E86E090E0E80EF91EEC81FD8183
:1006D0007896FD83EC8388E190E0680E791E9BE3B9
:1006E000491692E0590609F0A0CF8B8160E00E9484
:1006F000E6040894A11CB11CE981FA813296FA83C0
:10070000E98382E090E0280E391E96E0A916B10434
:1007100009F011CF0F900F900F900F900F90CF9185
:10072000DF911F910F91FF90EF90DF90CF90BF90DE
:10073000AF909F908F907F906F905F904F903F9081
:100740002F9008951F920F920FB60F9211242F939E
:100750003F938F939F93AF93BF9380915D07909149
:100760005E07A0915F07B091600730915C0723E0BE
:10077000230F2D3720F40196A11DB11D05C026E8D9
:10078000230F0296A11DB11D20935C0780935D0786
:1007900090935E07A0935F07B09360078091610715
:1007A00090916207A0916307B09164070196A11D23
:1007B000B11D8093610790936207A0936307B09384
:1007C0006407BF91AF919F918F913F912F910F90AF
:1007D0000FBE0F901F9018952FB7F89460915D078A
:1007E00070915E0780915F07909160072FBF089519
:1007F000789484B5826084BD84B5816084BD85B5FC
:10080000826085BD85B5816085BDEEE6F0E08081C2
:1008100081608083E1E8F0E01082808182608083E3
:10082000808181608083E0E8F0E080818160808366
:10083000E1EBF0E0808184608083E0EBF0E0808198
:1008400081608083E1E9F0E0808182608083808143
:1008500081608083E0E9F0E0808181608083E1EA6B
:10086000F0E0808182608083808181608083E0EA23
:10087000F0E0808181608083E1E2F1E0808182604C
:100880008083808181608083E0E2F1E0808181600B
:100890008083EAE7F0E080818460808380818260E9
:1008A00080838081816080838081806880831092D2
:1008B000C100089590E0FC013197E131F10508F0A5
:1008C00048C0EE58FF4F0C949F0A809180008F77AC
:1008D00003C0809180008F7D80938000089584B54F
:1008E0008F7702C084B58F7D84BD08958091B0005C
:1008F0008F7703C08091B0008F7D8093B000089502
:10090000809190008F7707C0809190008F7D03C009
:1009100080919000877F8093900008958091A0003F
:100920008F7707C08091A0008F7D03C08091A000C9
:10093000877F8093A0000895809120018F7707C062
:10094000809120018F7D03C080912001877F80935B
:1009500020010895CF93DF9390E0FC01E455FE4F12
:100960002491FC01EE50FE4F8491882361F190E0C8
:10097000880F991FFC01E459FD4FC591D491FC01EA
:10098000EE5AFD4FA591B491611109C09FB7F8943B
:100990008881209582238883EC912E230BC06230BE
:1009A00061F49FB7F8943881822F809583238883E0
:1009B000EC912E2B2C939FBF06C08FB7F894E88143
:1009C0002E2B28838FBFDF91CF9108951F93CF9354
:1009D000DF93282F30E0F901EA59FE4F8491F901A5
:1009E000E455FE4FD491F901EE50FE4FC491CC2353
:1009F000C9F0162F81110E945A04EC2FF0E0EE0F7F
:100A0000FF1FEE5AFD4FA591B4918FB7F8941111C5
:100A100005C09C91ED2FE095E92302C0EC91ED2BF0
:100A2000EC938FBFDF91CF911F910895CF93DF9308
:100A3000282F30E0F901EA59FE4F8491F901E4557D
:100A4000FE4FD491F901EE50FE4FC491CC2391F0AA
:100A500081110E945A04EC2FF0E0EE0FFF1FE85CBA
:100A6000FD4FA591B491EC91ED2381E090E021F44C
:100A700080E002C080E090E0DF91CF91089508957A
:100A8000CF93DF930E94F8030E943F050E94EE017E
:100A9000C1E5D6E00E947A022097E1F30E94510658
:100AA000F9CF08951F920F920FB60F920BB60F92C7
:100AB00011242F933F934F938F939F93EF93FF9323
:100AC0008091C00082FD1DC04091C6002091A50705
:100AD0003091A6072F5F3F4F2F7330708091A7078B
:100AE0009091A8072817390771F0E091A507F091B8
:100AF000A607EB59F84F40833093A6072093A5072C
:100B000002C08091C600FF91EF919F918F914F910C
:100B10003F912F910F900BBE0F900FBE0F901F9023
:100B2000189508951F920F920FB60F920BB60F9261
:100B300011242F933F934F938F939F93EF93FF93A2
:100B40008091C80082FD1DC04091CE0020912D08EB
:100B500030912E082F5F3F4F2F73307080912F08F8
:100B6000909130082817390771F0E0912D08F09125
:100B70002E08E351F84F408330932E0820932D0820
:100B800002C08091CE00FF91EF919F918F914F9184
:100B90003F912F910F900BBE0F900FBE0F901F90A3
:100BA000189508951F920F920FB60F920BB60F92E1
:100BB00011242F933F934F938F939F93EF93FF9322
:100BC0008091D00082FD1DC04091D6002091B508D3
:100BD0003091B6082F5F3F4F2F7330708091B70868
:100BE0009091B8082817390771F0E091B508F09195
:100BF000B608EB58F74F40833093B6082093B508FA
:100C000002C08091D600FF91EF919F918F914F91FB
:100C10003F912F910F900BBE0F900FBE0F901F9022
:100C2000189508951F920F920FB60F920BB60F9260
:100C300011242F933F934F938F939F93EF93FF93A1
:100C40008091300182FD1DC04091360120913D0907
:100C500030913E092F5F3F4F2F73307080913F09D5
:100C6000909140092817390771F0E0913D09F09102
:100C70003E09E350F74F408330933E0920933D09EE
:100C800002C080913601FF91EF919F918F914F911A
:100C90003F912F910F900BBE0F900FBE0F901F90A2
:100CA0001895E0919109F0919209E05CFF4F8191D4
:100CB000919120813181805C9F4F821B930B60E476
:100CC00070E00E944A0A892B11F00E945105E091C0
:100CD000B309F091B409E05CFF4F819191912081BB
:100CE0003181805C9F4F821B930B60E470E00E9417
:100CF0004A0A892B11F00E949105E091D509F091E3
:100D0000D609E05CFF4F8191919120813181805C17
:100D10009F4F821B930B60E470E00E944A0A892B6C
:100D200011F00E94D105E091F709F091F809E05C1B
:100D3000FF4F8191919120813181805C9F4F821B77
:100D4000930B60E470E00E944A0A892B11F00E9424
:100D5000110608951F920F920FB60F920BB60F92C5
:100D600011242F933F938F939F93EF93FF932091A1
:100D7000E9073091EA078091EB079091EC0728177B
:100D8000390731F48091C1008F7D8093C10014C078
:100D9000E091EB07F091EC07E755F84F2081809147
:100DA000EB079091EC0701968F7390709093EC078E
:100DB0008093EB072093C600FF91EF919F918F9155
:100DC0003F912F910F900BBE0F900FBE0F901F9071
:100DD00018951F920F920FB60F920BB60F92112417
:100DE0002F933F938F939F93EF93FF9320917108DD
:100DF0003091720880917308909174082817390710
:100E000031F48091C9008F7D8093C90014C0E091B6
:100E10007308F0917408EF5CF74F2081809173089C
:100E20009091740801968F739070909374088093DA
:100E300073082093CE00FF91EF919F918F913F9186
:100E40002F910F900BBE0F900FBE0F901F90189513
:100E50001F920F920FB60F920BB60F9211242F9381
:100E60003F938F939F93EF93FF932091F9083091D5
:100E7000FA088091FB089091FC082817390731F493
:100E80008091D1008F7D8093D10014C0E091FB0848
:100E9000F091FC08E754F74F20818091FB08909176
:100EA000FC0801968F7390709093FC088093FB0868
:100EB0002093D600FF91EF919F918F913F912F91B9
:100EC0000F900BBE0F900FBE0F901F9018951F92A2
:100ED0000F920FB60F920BB60F9211242F933F93E0
:100EE0008F939F93EF93FF93209181093091820913
:100EF00080918309909184092817390731F48091F2
:100F000031018F7D8093310114C0E0918309F0910C
:100F10008409EF5BF64F20818091830990918409C9
:100F200001968F7390709093840980938309209326
:100F30003601FF91EF919F918F913F912F910F90EB
:100F40000BBE0F900FBE0F901F901895AF92BF92DF
:100F5000DF92EF92FF920F931F93CF93DF93EC01F9
:100F60007A018B01DD24403081EE580780E068076C
:100F700080E0780711F0DD24D39491E0A92EB12C04
:100F8000EC89FD89DD2069F0C50108A002C0880F49
:100F9000991F0A94E2F7808360E079E08DE390E0A6
:100FA00005C0108260E874E88EE190E0A801970126
:100FB0000E945E0A2150304040405040569547956F
:100FC0003795279580E12030380720F0DD2011F09B
:100FD000DD24D6CFE889F9893083EA89FB8920832B
:100FE00019A2EE89FF89408121E030E0C9010C8C13
:100FF00002C0880F991F0A94E2F7482B4083EE89BC
:10100000FF894081C9010D8C02C0880F991F0A9485
:10101000E2F7482B4083EE89FF894081C9010E8C9D
:1010200002C0880F991F0A94E2F7482B4083EE898B
:10103000FF8980810F8C02C0220F331F0A94E2F7D0
:10104000209528232083DF91CF911F910F91FF904E
:10105000EF90DF90BF90AF900895DC011C96ED916A
:10106000FC911D97E05CFF4F81919191208131812E
:10107000805C9F4F821B930B60E470E00E944A0AE1
:101080000895DC011C96ED91FC911D97E05CFF4FEB
:1010900020813181E054F040DF01AE5BBF4F8D9184
:1010A0009C9111972817390719F42FEF3FEF07C0CC
:1010B0008D919C91E80FF91F8081282F30E0C901A4
:1010C0000895DC011C96ED91FC911D97E05CFF4FAB
:1010D00020813181E054F040DF01AE5BBF4F8D9144
:1010E0009C9111972817390719F42FEF3FEF10C083
:1010F0008D919C911197E80FF91F20818D919C9102
:10110000119701968F73907011969C938E9330E097
:10111000C9010895DC0191968C919197882339F04B
:101120005496ED91FC915597808186FFF9CF919669
:101130001C920895CF93DF93EC01EE85FF85E05C70
:10114000FF4F20813181E054F0402F5F3F4F2F73DC
:101150003070DF01AE5BBF4F8D919C9111972817C6
:101160003907D1F3E05CFF4F80819181E054F0407A
:10117000E80FF91F6083EE85FF85E05CFF4F318348
:101180002083EE89FF89208181E090E00F8C02C0EE
:10119000880F991F0A94E2F7282B208381E089A306
:1011A000EC89FD8980818064808381E090E0DF911B
:1011B000CF9108951F93109288091092870928EE05
:1011C00033E040E050E02093890930938A0940934E
:1011D0008B0950938C096BE472E0709386096093DD
:1011E000850985E697E0909392098093910989EAB1
:1011F00097E0909394098093930985EC90E0909305
:1012000096098093950984EC90E0909398098093D7
:10121000970980EC90E090939A098093990981EC6A
:1012200090E090939C0980939B0982EC90E09093CE
:101230009E0980939D0986EC90E09093A00980938D
:101240009F0914E01093A109B3E0B093A209A7E0AD
:10125000A093A309F5E0F093A409E1E0E093A509C8
:101260001092AA091092A9092093AB093093AC09F6
:101270004093AD095093AE097093A8096093A709F4
:101280008DEE97E09093B4098093B30981E398E0E1
:101290009093B6098093B5098DEC90E09093B809CE
:1012A0008093B7098CEC90E09093BA098093B909C8
:1012B00088EC90E09093BC098093BB0989EC90E0A6
:1012C0009093BE098093BD098AEC90E09093C00989
:1012D0008093BF098EEC90E09093C2098093C1097E
:1012E0001093C309B093C409A093C509F093C6092C
:1012F000E093C7091092CC091092CB092093CD0935
:101300003093CE094093CF095093D0097093CA0906
:101310006093C90985E798E09093D6098093D50931
:1013200089EB98E09093D8098093D70985ED90E0F8
:101330009093DA098093D90984ED90E09093DC09C9
:101340008093DB0980ED90E09093DE098093DD09C6
:1013500081ED90E09093E0098093DF0982ED90E0C9
:101360009093E2098093E10986ED90E09093E4097F
:101370008093E3091093E509B093E609A093E70988
:10138000F093E809E093E9091092EE091092ED0953
:101390002093EF093093F0094093F1095093F2093B
:1013A0007093EC096093EB098DEF98E09093F80946
:1013B0008093F70981E499E09093FA098093F90901
:1013C00085E391E09093FC098093FB0984E391E02D
:1013D0009093FE098093FD0980E391E09093000AC9
:1013E0008093FF0981E391E09093020A8093010AC0
:1013F00082E391E09093040A8093030A86E391E0EC
:101400009093060A8093050A1093070AB093080A7E
:10141000A093090AF0930A0AE0930B0A1F9108951A
:10142000CF92DF92EF92FF920F931F93CF93DF93B0
:101430007C016B018A01C0E0D0E00FC0D6016D9144
:101440006D01D701ED91FC910190F081E02DC70174
:101450001995C80FD91F015010400115110571F7DA
:10146000CE01DF91CF911F910F91FF90EF90DF9010
:10147000CF900895DB018F939F930E94A50ABF919F
:10148000AF91A29F800D911DA39F900DB29F900DD3
:101490001124089597FB072E16F4009407D077FDCA
:1014A00009D00E94B00A07FC05D03EF490958195C2
:1014B0009F4F0895709561957F4F0895A1E21A2E70
:1014C000AA1BBB1BFD010DC0AA1FBB1FEE1FFF1FE8
:1014D000A217B307E407F50720F0A21BB30BE40B38
:1014E000F50B661F771F881F991F1A9469F760957F
:1014F0007095809590959B01AC01BD01CF01089539
:10150000052E97FB1EF400940E94970A57FD07D002
:101510000E945E0A07FC03D04EF40C94970A509583
:101520004095309521953F4F4F4F5F4F08959095CF
:101530008095709561957F4F8F4F9F4F0895EE0F67
:10154000FF1F0590F491E02D19940E94C80AA59FF1
:10155000900DB49F900DA49F800D911D11240895AE
:10156000AA1BBB1B51E107C0AA1FBB1FA617B707C9
:1015700010F0A61BB70B881F991F5A95A9F78095E5
:101580009095BC01CD0108950790F691E02D199436
:10159000A29FB001B39FC001A39F700D811D1124B4
:1015A000911DB29F700D811D1124911D0895F89415
:0215B000FFCF6B
:1015B2006B002D003A00006E616E00696E66006F6E
:1015C2007666002E00170019001B001D001F002167
:1015D20000160018001A001C001E00200022002421
:1015E20000260028002A002C002E002300250027B8
:1015F2000029002B002D00000000009A08100A2D7F
:0816020008610841088A080094
:00000001FF
