:100000000C9462000C948A000C948A000C948A0070
:100010000C948A000C948A000C948A000C948A0038
:100020000C948A000C948A000C948A000C948A0028
:100030000C948A000C948A000C948A000C948A0018
:100040000C9401060C948A000C9496020C94E8021D
:100050000C948A000C948A000C948A000C948A00F8
:100060000C948A000C948A00000000070002010032
:100070000003040600000000000000000102040864
:100080001020408001020408102001020408102002
:10009000040404040404040402020202020203032E
:1000A00003030303000000002300260029000000D2
:1000B0000000250028002B0000000000240027007D
:1000C0002A00570411241FBECFEFD8E0DEBFCDBFFA
:1000D00011E0A0E0B1E0E4E0FEE002C005900D9286
:1000E000A235B107D9F712E0A2E5B1E001C01D9237
:1000F000AB39B107E1F710E0C4ECD0E004C02297BF
:10010000FE010E94ED06C23CD107C9F70E9484029D
:100110000C9400070C940000BF92CF92DF92EF92F4
:10012000FF920F931F937C016B01B42E00E712E046
:10013000C80160E071E00E94EB05C801B7014AE028
:1001400050E00E94D805C80162E071E00E94EB0512
:10015000C801B6014AE050E00E94D805C80164E039
:1001600071E00E94EB05C8016B2D4AE050E00E944F
:100170008605C80166E071E00E94EE051F910F91AF
:10018000FF90EF90DF90CF90BF9008954F925F92D5
:100190006F927F928F929F92AF92BF92CF92DF9297
:1001A000EF92FF920F931F93CF93DF932CE1822E58
:1001B00021E0922ECC24DD2444244394F401508089
:1001C000852D61E00E942A0298E2A92E91E0B92EC5
:1001D00082E5E82E81E0F82EEC0CFD1C860103562A
:1001E0001E4FE6017C2E6D2EF50180810E945A0281
:1001F000982FF7018083882371F0F8018081981788
:1002000051F0F7014082F801408280E090E0BE01A9
:1002100041E00E948C00F7018081882379F4F80185
:100220008081882359F0F7011082F801108280E064
:1002300090E0672D762D40E00E948C0082E090E0F7
:10024000A80EB91EE6E0F0E0EE0EFF1E0A5F1F4F9B
:100250002696F0E4AF16F1E0BF0621F6852D60E0AA
:100260000E942A020894C11CD11C82E090E0880EF2
:10027000991E96E0C916D10409F0A0CFDF91CF9165
:100280001F910F91FF90EF90DF90CF90BF90AF90B4
:100290009F908F907F906F905F904F9008950E94F5
:1002A000C60008950F931F9386E160E00E94EE015F
:1002B00088E160E00E94EE018AE160E00E94EE01C8
:1002C0008CE160E00E94EE018EE160E00E94EE01B0
:1002D00080E260E00E94EE0182E260E00E94EE01B6
:1002E00084E260E00E94EE0186E260E00E94EE019E
:1002F00088E260E00E94EE018AE260E00E94EE0186
:100300008CE260E00E94EE0187E161E00E94EE0174
:1003100089E161E00E94EE018BE161E00E94EE0163
:100320008DE161E00E94EE018FE161E00E94EE014B
:1003300081E261E00E94EE0183E261E00E94EE0151
:1003400085E261E00E94EE0187E261E00E94EE0139
:1003500089E261E00E94EE018BE261E00E94EE0121
:100360008DE261E00E94EE0100E712E0C80140E882
:1003700055E260E070E00E942303C80167E071E08D
:100380000E94EB051F910F910895833081F028F4AE
:10039000813099F08230A1F008958630A9F087303D
:1003A000B9F08430D1F4809180008F7D03C08091BA
:1003B00080008F7780938000089584B58F7702C086
:1003C00084B58F7D84BD08958091B0008F7703C080
:1003D0008091B0008F7D8093B0000895CF93DF931C
:1003E00090E0FC01E458FF4F2491FC01E057FF4FDF
:1003F0008491882361F190E0880F991FFC01E854F3
:10040000FF4FC591D491FC01E255FF4FA591B491E6
:10041000611109C09FB7F894888120958223888351
:10042000EC912E230BC0623061F49FB7F8943881B1
:10043000822F809583238883EC912E2B2C939FBF52
:1004400006C08FB7F894E8812E2B28838FBFDF91E9
:10045000CF9108951F93CF93DF93282F30E0F901B8
:10046000E859FF4F8491F901E458FF4FD491F90105
:10047000E057FF4FC491CC23C9F0162F81110E9481
:10048000C501EC2FF0E0EE0FFF1FE255FF4FA591E5
:10049000B4918FB7F894111105C09C91ED2FE095A0
:1004A000E92302C0EC91ED2BEC938FBFDF91CF914C
:1004B0001F910895CF93DF93282F30E0F901E85979
:1004C000FF4F8491F901E458FF4FD491F901E057AF
:1004D000FF4FC491CC2391F081110E94C501EC2FF4
:1004E000F0E0EE0FFF1FEC55FF4FA591B491EC919A
:1004F000ED2381E090E021F480E002C080E090E014
:10050000DF91CF9108950895CF93DF930E944B061A
:100510000E9483020E945201C1EDD2E00E944F016D
:100520002097E1F30E94D102F9CF08951F920F9214
:100530000FB60F9211242F933F934F938F939F9356
:10054000EF93FF938091C00082FD1DC04091C600D3
:1005500020912802309129022F5F3F4F2F73307076
:1005600080912A0290912B022817390771F0E091AF
:100570002802F0912902E851FE4F4083309329026E
:100580002093280202C08091C600FF91EF919F91B5
:100590008F914F913F912F910F900FBE0F901F9011
:1005A0001895E0917C02F0917D02E05CFF4F819113
:1005B000919120813181805C9F4F821B930B60E47D
:1005C00070E00E949606892B11F00E949502089512
:1005D0001F920F920FB60F9211242F933F938F9378
:1005E0009F93EF93FF9320916C0230916D02809165
:1005F0006E0290916F022817390731F48091C10083
:100600008F7D8093C10014C0E0916E02F0916F0263
:10061000E45DFD4F208180916E0290916F02019602
:100620008F73907090936F0280936E022093C60038
:10063000FF91EF919F918F913F912F910F900FBE5E
:100640000F901F901895AF92BF92DF92EF92FF929A
:100650000F931F93CF93DF93EC017A018B01DD247D
:10066000403081EE580780E0680780E0780711F09D
:10067000DD24D39491E0A92EB12CEC89FD89DD20F5
:1006800069F0C50108A002C0880F991F0A94E2F71B
:10069000808360E079E08DE390E005C0108260E83F
:1006A00074E88EE190E0A80197010E94AA0621500B
:1006B000304040405040569547953795279580E10A
:1006C0002030380720F0DD2011F0DD24D6CFE88976
:1006D000F9893083EA89FB89208319A2EE89FF8991
:1006E000408121E030E0C9010C8C02C0880F991FC5
:1006F0000A94E2F7482B4083EE89FF894081C901C3
:100700000D8C02C0880F991F0A94E2F7482B408392
:10071000EE89FF894081C9010E8C02C0880F991FA4
:100720000A94E2F7482B4083EE89FF8980810F8C81
:1007300002C0220F331F0A94E2F72095282320835A
:10074000DF91CF911F910F91FF90EF90DF90BF90BD
:10075000AF900895DC011C96ED91FC911D97E05C33
:10076000FF4F8191919120813181805C9F4F821B4D
:10077000930B60E470E00E9496060895DC011C96DD
:10078000ED91FC911D97E05CFF4F20813181E05499
:10079000F040DF01AE5BBF4F8D919C911197281700
:1007A000390719F42FEF3FEF07C08D919C91E80FA7
:1007B000F91F8081282F30E0C9010895DC011C96C3
:1007C000ED91FC911D97E05CFF4F20813181E05459
:1007D000F040DF01AE5BBF4F8D919C9111972817C0
:1007E000390719F42FEF3FEF10C08D919C911197AD
:1007F000E80FF91F20818D919C91119701968F73BD
:10080000907011969C938E9330E0C9010895DC019D
:1008100091968C919197882339F05496ED91FC91A3
:100820005597808186FFF9CF91961C920895CF93BA
:10083000DF93EC01EE85FF85E05CFF4F2081318185
:10084000E054F0402F5F3F4F2F733070DF01AE5BFD
:10085000BF4F8D919C91119728173907D1F3E05C18
:10086000FF4F80819181E054F040E80FF91F6083D1
:10087000EE85FF85E05CFF4F31832083EE89FF89A1
:10088000208181E090E00F8C02C0880F991F0A94AC
:10089000E2F7282B208381E089A3EC89FD89808100
:1008A0008064808381E090E0DF91CF910895109281
:1008B00073021092720288EE93E0A0E0B0E08093A1
:1008C000740290937502A0937602B093770286E447
:1008D00091E0909371028093700288EE91E0909382
:1008E0007D0280937C028CE292E090937F02809361
:1008F0007E0285EC90E0909381028093800284ECEC
:1009000090E0909383028093820280EC90E0909339
:1009100085028093840281EC90E09093870280931B
:10092000860282EC90E0909389028093880286ECA4
:1009300090E090938B0280938A0284E080938C02F3
:1009400083E080938D0287E080938E0285E0809320
:100950008F0281E0809390020895CF92DF92EF9210
:10096000FF920F931F93CF93DF937C016B018A015A
:10097000C0E0D0E00FC0D6016D916D01D701ED91BF
:10098000FC910190F081E02DC7010995C80FD91F96
:10099000015010400115110571F7CE01DF91CF9183
:1009A0001F910F91FF90EF90DF90CF900895EF92FD
:1009B000FF920F931F938C01DC01ED91FC9101904C
:1009C000F081E02D6DE009957C01D801ED91FC915D
:1009D0000190F081E02DC8016AE009959C012E0D7F
:1009E0003F1DC9011F910F91FF90EF900895CF9384
:1009F000DF93EC016115710519F420E030E00FC0C0
:100A0000DB010D900020E9F71197A61BB70BE881D9
:100A1000F9810280F381E02DAD0109959C01C901A6
:100A2000DF91CF9108954F925F927F928F929F9224
:100A3000AF92BF92CF92DF92EF92FF920F931F93EC
:100A4000DF93CF93CDB7DEB7A1970FB6F894DEBF93
:100A50000FBECDBF2C01742ECB01223008F42AE04A
:100A600019A231E2C32ED12CCC0EDD1E822E992488
:100A7000AA24BB24672D752FA50194010E94AA0604
:100A800079018A01C801B701A50194010E94860677
:100A9000472D461B0894C108D1084A3014F4405D24
:100AA00001C0495CF6014083E114F1040105110520
:100AB00021F07E2C5F2DC801DDCFC201B6010E945E
:100AC000F704A1960FB6F894DEBF0FBECDBFCF914D
:100AD000DF911F910F91FF90EF90DF90CF90BF902B
:100AE000AF909F908F907F905F904F900895DC0122
:100AF0002115310541F4ED91FC910190F081E02D3B
:100B0000642F099508950E9413050895EF92FF92AE
:100B10000F931F939A01E62EFF2400E010E0B80126
:100B2000A7010E9477051F910F91FF90EF90089504
:100B3000CF92DF92EF92FF920F931F93CF93DF93A9
:100B4000EC016A017B012115310541F4E881F9814D
:100B50000190F081E02D642F09951FC02A303105E6
:100B6000D1F477FF17C0E881F9810190F081E02D81
:100B70006DE209958C0144275527BA014C195D098E
:100B80006E097F09CE012AE00E9413059801280F03
:100B9000391F04C02AE00E9413059C01C901DF919E
:100BA000CF911F910F91FF90EF90DF90CF9008951C
:100BB000EF92FF920F931F937B019A010027F7FC9E
:100BC0000095102FB801A7010E9498051F910F9161
:100BD000FF90EF9008950E94F7040895EF92FF921E
:100BE0000F931F937C010E94F7048C01C7010E94A0
:100BF000D704080F191FC8011F910F91FF90EF90A4
:100C000008951F920F920FB60F9211242F933F93C6
:100C10008F939F93AF93BF9380919302909194028F
:100C2000A0919502B09196023091920223E0230F99
:100C30002D3720F40196A11DB11D05C026E8230F14
:100C40000296A11DB11D209392028093930290936E
:100C50009402A0939502B09396028091970290918E
:100C60009802A0919902B0919A020196A11DB11D1E
:100C70008093970290939802A0939902B0939A025E
:100C8000BF91AF919F918F913F912F910F900FBE88
:100C90000F901F901895789484B5826084BD84B5B8
:100CA000816084BD85B5826085BD85B5816085BD67
:100CB000EEE6F0E0808181608083E1E8F0E0108280
:100CC000808182608083808181608083E0E8F0E0C1
:100CD000808181608083E1EBF0E0808184608083AB
:100CE000E0EBF0E0808181608083EAE7F0E08081E2
:100CF0008460808380818260808380818160808342
:100D00008081806880831092C1000895DB018F93F9
:100D10009F930E94CC06BF91AF91A29F800D911D21
:100D2000A39F900DB29F900D1124089597FB072E5D
:100D300016F4009407D077FD09D00E94D70607FC6F
:100D400005D03EF4909581959F4F089570956195DB
:100D50007F4F0895A1E21A2EAA1BBB1BFD010DC0F7
:100D6000AA1FBB1FEE1FFF1FA217B307E407F5075B
:100D700020F0A21BB30BE40BF50B661F771F881F37
:100D8000991F1A9469F760957095809590959B01CD
:100D9000AC01BD01CF0108950E94F106A59F900D01
:100DA000B49F900DA49F800D911D11240895AA1B3E
:100DB000BB1B51E107C0AA1FBB1FA617B70710F046
:100DC000A61BB70B881F991F5A95A9F78095909578
:100DD000BC01CD010895EE0FFF1F0590F491E02DA9
:100DE0000994A29FB001B39FC001A39F700D811D04
:100DF0001124911DB29F700D811D1124911D089524
:040E0000F894FFCF94
:100E04006B002D003A000072656164793A006E61EE
:100E14006E00696E66006F7666002E00170019007A
:100E24001B001D001F002100160018001A001C00E2
:100E34001E00200022002400260028002A002C0086
:100E44002E00000000001704AD04AA03DE03BE0355
:020E5400070491
:00000001FF
